{
	"contracts/LotterySmartContract.sol": {
		"LotterySmartContract": {
			"abi": [
				{
					"inputs": [],
					"stateMutability": "nonpayable",
					"type": "constructor"
				},
				{
					"inputs": [],
					"name": "getBalance",
					"outputs": [
						{
							"internalType": "uint256",
							"name": "",
							"type": "uint256"
						}
					],
					"stateMutability": "view",
					"type": "function"
				},
				{
					"inputs": [],
					"name": "manager",
					"outputs": [
						{
							"internalType": "address",
							"name": "",
							"type": "address"
						}
					],
					"stateMutability": "view",
					"type": "function"
				},
				{
					"inputs": [],
					"name": "participate",
					"outputs": [],
					"stateMutability": "payable",
					"type": "function"
				},
				{
					"inputs": [],
					"name": "pickWinner",
					"outputs": [],
					"stateMutability": "nonpayable",
					"type": "function"
				},
				{
					"inputs": [
						{
							"internalType": "uint256",
							"name": "",
							"type": "uint256"
						}
					],
					"name": "players",
					"outputs": [
						{
							"internalType": "address payable",
							"name": "",
							"type": "address"
						}
					],
					"stateMutability": "view",
					"type": "function"
				},
				{
					"inputs": [],
					"name": "winner",
					"outputs": [
						{
							"internalType": "address payable",
							"name": "",
							"type": "address"
						}
					],
					"stateMutability": "view",
					"type": "function"
				}
			],
			"devdoc": {
				"kind": "dev",
				"methods": {},
				"version": 1
			},
			"evm": {
				"assembly": "    /* \"contracts/LotterySmartContract.sol\":68:1111  contract LotterySmartContract {... */\n  mstore(0x40, 0x80)\n    /* \"contracts/LotterySmartContract.sol\":211:265  constructor(){... */\n  callvalue\n  dup1\n  iszero\n  tag_1\n  jumpi\n  0x00\n  dup1\n  revert\ntag_1:\n  pop\n    /* \"contracts/LotterySmartContract.sol\":245:255  msg.sender */\n  caller\n    /* \"contracts/LotterySmartContract.sol\":235:242  manager */\n  0x00\n  dup1\n    /* \"contracts/LotterySmartContract.sol\":235:255  manager = msg.sender */\n  0x0100\n  exp\n  dup2\n  sload\n  dup2\n  0xffffffffffffffffffffffffffffffffffffffff\n  mul\n  not\n  and\n  swap1\n  dup4\n  0xffffffffffffffffffffffffffffffffffffffff\n  and\n  mul\n  or\n  swap1\n  sstore\n  pop\n    /* \"contracts/LotterySmartContract.sol\":68:1111  contract LotterySmartContract {... */\n  dataSize(sub_0)\n  dup1\n  dataOffset(sub_0)\n  0x00\n  codecopy\n  0x00\n  return\nstop\n\nsub_0: assembly {\n        /* \"contracts/LotterySmartContract.sol\":68:1111  contract LotterySmartContract {... */\n      mstore(0x40, 0x80)\n      jumpi(tag_1, lt(calldatasize, 0x04))\n      shr(0xe0, calldataload(0x00))\n      dup1\n      0x12065fe0\n      eq\n      tag_2\n      jumpi\n      dup1\n      0x481c6a75\n      eq\n      tag_3\n      jumpi\n      dup1\n      0x5d495aea\n      eq\n      tag_4\n      jumpi\n      dup1\n      0xd11711a2\n      eq\n      tag_5\n      jumpi\n      dup1\n      0xdfbf53ae\n      eq\n      tag_6\n      jumpi\n      dup1\n      0xf71d96cb\n      eq\n      tag_7\n      jumpi\n    tag_1:\n      0x00\n      dup1\n      revert\n        /* \"contracts/LotterySmartContract.sol\":433:593  function getBalance() public view returns(uint) {... */\n    tag_2:\n      callvalue\n      dup1\n      iszero\n      tag_8\n      jumpi\n      0x00\n      dup1\n      revert\n    tag_8:\n      pop\n      tag_9\n      tag_10\n      jump\t// in\n    tag_9:\n      mload(0x40)\n      tag_11\n      swap2\n      swap1\n      tag_12\n      jump\t// in\n    tag_11:\n      mload(0x40)\n      dup1\n      swap2\n      sub\n      swap1\n      return\n        /* \"contracts/LotterySmartContract.sol\":105:127  address public manager */\n    tag_3:\n      callvalue\n      dup1\n      iszero\n      tag_13\n      jumpi\n      0x00\n      dup1\n      revert\n    tag_13:\n      pop\n      tag_14\n      tag_15\n      jump\t// in\n    tag_14:\n      mload(0x40)\n      tag_16\n      swap2\n      swap1\n      tag_17\n      jump\t// in\n    tag_16:\n      mload(0x40)\n      dup1\n      swap2\n      sub\n      swap1\n      return\n        /* \"contracts/LotterySmartContract.sol\":759:1108  function pickWinner() public {... */\n    tag_4:\n      callvalue\n      dup1\n      iszero\n      tag_18\n      jumpi\n      0x00\n      dup1\n      revert\n    tag_18:\n      pop\n      tag_19\n      tag_20\n      jump\t// in\n    tag_19:\n      stop\n        /* \"contracts/LotterySmartContract.sol\":271:425  function participate() public payable {... */\n    tag_5:\n      tag_21\n      tag_22\n      jump\t// in\n    tag_21:\n      stop\n        /* \"contracts/LotterySmartContract.sol\":173:202  address payable public winner */\n    tag_6:\n      callvalue\n      dup1\n      iszero\n      tag_23\n      jumpi\n      0x00\n      dup1\n      revert\n    tag_23:\n      pop\n      tag_24\n      tag_25\n      jump\t// in\n    tag_24:\n      mload(0x40)\n      tag_26\n      swap2\n      swap1\n      tag_27\n      jump\t// in\n    tag_26:\n      mload(0x40)\n      dup1\n      swap2\n      sub\n      swap1\n      return\n        /* \"contracts/LotterySmartContract.sol\":134:166  address payable[] public players */\n    tag_7:\n      callvalue\n      dup1\n      iszero\n      tag_28\n      jumpi\n      0x00\n      dup1\n      revert\n    tag_28:\n      pop\n      tag_29\n      0x04\n      dup1\n      calldatasize\n      sub\n      dup2\n      add\n      swap1\n      tag_30\n      swap2\n      swap1\n      tag_31\n      jump\t// in\n    tag_30:\n      tag_32\n      jump\t// in\n    tag_29:\n      mload(0x40)\n      tag_33\n      swap2\n      swap1\n      tag_27\n      jump\t// in\n    tag_33:\n      mload(0x40)\n      dup1\n      swap2\n      sub\n      swap1\n      return\n        /* \"contracts/LotterySmartContract.sol\":433:593  function getBalance() public view returns(uint) {... */\n    tag_10:\n        /* \"contracts/LotterySmartContract.sol\":475:479  uint */\n      0x00\n        /* \"contracts/LotterySmartContract.sol\":511:521  msg.sender */\n      caller\n        /* \"contracts/LotterySmartContract.sol\":500:521  manager == msg.sender */\n      0xffffffffffffffffffffffffffffffffffffffff\n      and\n        /* \"contracts/LotterySmartContract.sol\":500:507  manager */\n      0x00\n      dup1\n      sload\n      swap1\n      0x0100\n      exp\n      swap1\n      div\n      0xffffffffffffffffffffffffffffffffffffffff\n      and\n        /* \"contracts/LotterySmartContract.sol\":500:521  manager == msg.sender */\n      0xffffffffffffffffffffffffffffffffffffffff\n      and\n      eq\n        /* \"contracts/LotterySmartContract.sol\":492:546  require(manager == msg.sender,\"you are not a manager\") */\n      tag_35\n      jumpi\n      mload(0x40)\n      0x08c379a000000000000000000000000000000000000000000000000000000000\n      dup2\n      mstore\n      0x04\n      add\n      tag_36\n      swap1\n      tag_37\n      jump\t// in\n    tag_36:\n      mload(0x40)\n      dup1\n      swap2\n      sub\n      swap1\n      revert\n    tag_35:\n        /* \"contracts/LotterySmartContract.sol\":564:585  address(this).balance */\n      selfbalance\n        /* \"contracts/LotterySmartContract.sol\":557:585  return address(this).balance */\n      swap1\n      pop\n        /* \"contracts/LotterySmartContract.sol\":433:593  function getBalance() public view returns(uint) {... */\n      swap1\n      jump\t// out\n        /* \"contracts/LotterySmartContract.sol\":105:127  address public manager */\n    tag_15:\n      0x00\n      dup1\n      sload\n      swap1\n      0x0100\n      exp\n      swap1\n      div\n      0xffffffffffffffffffffffffffffffffffffffff\n      and\n      dup2\n      jump\t// out\n        /* \"contracts/LotterySmartContract.sol\":759:1108  function pickWinner() public {... */\n    tag_20:\n        /* \"contracts/LotterySmartContract.sol\":816:826  msg.sender */\n      caller\n        /* \"contracts/LotterySmartContract.sol\":807:826  manager==msg.sender */\n      0xffffffffffffffffffffffffffffffffffffffff\n      and\n        /* \"contracts/LotterySmartContract.sol\":807:814  manager */\n      0x00\n      dup1\n      sload\n      swap1\n      0x0100\n      exp\n      swap1\n      div\n      0xffffffffffffffffffffffffffffffffffffffff\n      and\n        /* \"contracts/LotterySmartContract.sol\":807:826  manager==msg.sender */\n      0xffffffffffffffffffffffffffffffffffffffff\n      and\n      eq\n        /* \"contracts/LotterySmartContract.sol\":799:853  require(manager==msg.sender,\"You are not the manager\") */\n      tag_39\n      jumpi\n      mload(0x40)\n      0x08c379a000000000000000000000000000000000000000000000000000000000\n      dup2\n      mstore\n      0x04\n      add\n      tag_40\n      swap1\n      tag_41\n      jump\t// in\n    tag_40:\n      mload(0x40)\n      dup1\n      swap2\n      sub\n      swap1\n      revert\n    tag_39:\n        /* \"contracts/LotterySmartContract.sol\":888:889  3 */\n      0x03\n        /* \"contracts/LotterySmartContract.sol\":872:879  players */\n      0x01\n        /* \"contracts/LotterySmartContract.sol\":872:886  players.length */\n      dup1\n      sload\n      swap1\n      pop\n        /* \"contracts/LotterySmartContract.sol\":872:889  players.length>=3 */\n      lt\n      iszero\n        /* \"contracts/LotterySmartContract.sol\":864:916  require(players.length>=3,\"players are less than 3\") */\n      tag_42\n      jumpi\n      mload(0x40)\n      0x08c379a000000000000000000000000000000000000000000000000000000000\n      dup2\n      mstore\n      0x04\n      add\n      tag_43\n      swap1\n      tag_44\n      jump\t// in\n    tag_43:\n      mload(0x40)\n      dup1\n      swap2\n      sub\n      swap1\n      revert\n    tag_42:\n        /* \"contracts/LotterySmartContract.sol\":927:933  uint r */\n      0x00\n        /* \"contracts/LotterySmartContract.sol\":934:942  random() */\n      tag_45\n        /* \"contracts/LotterySmartContract.sol\":934:940  random */\n      tag_46\n        /* \"contracts/LotterySmartContract.sol\":934:942  random() */\n      jump\t// in\n    tag_45:\n        /* \"contracts/LotterySmartContract.sol\":927:942  uint r=random() */\n      swap1\n      pop\n        /* \"contracts/LotterySmartContract.sol\":953:963  uint index */\n      0x00\n        /* \"contracts/LotterySmartContract.sol\":968:975  players */\n      0x01\n        /* \"contracts/LotterySmartContract.sol\":968:982  players.length */\n      dup1\n      sload\n      swap1\n      pop\n        /* \"contracts/LotterySmartContract.sol\":966:967  r */\n      dup3\n        /* \"contracts/LotterySmartContract.sol\":966:982  r%players.length */\n      tag_47\n      swap2\n      swap1\n      tag_48\n      jump\t// in\n    tag_47:\n        /* \"contracts/LotterySmartContract.sol\":953:982  uint index = r%players.length */\n      swap1\n      pop\n        /* \"contracts/LotterySmartContract.sol\":1002:1009  players */\n      0x01\n        /* \"contracts/LotterySmartContract.sol\":1010:1015  index */\n      dup2\n        /* \"contracts/LotterySmartContract.sol\":1002:1016  players[index] */\n      dup2\n      sload\n      dup2\n      lt\n      tag_49\n      jumpi\n      tag_50\n      tag_51\n      jump\t// in\n    tag_50:\n    tag_49:\n      swap1\n      0x00\n      mstore\n      keccak256(0x00, 0x20)\n      add\n      0x00\n      swap1\n      sload\n      swap1\n      0x0100\n      exp\n      swap1\n      div\n      0xffffffffffffffffffffffffffffffffffffffff\n      and\n        /* \"contracts/LotterySmartContract.sol\":993:999  winner */\n      0x02\n      0x00\n        /* \"contracts/LotterySmartContract.sol\":993:1016  winner = players[index] */\n      0x0100\n      exp\n      dup2\n      sload\n      dup2\n      0xffffffffffffffffffffffffffffffffffffffff\n      mul\n      not\n      and\n      swap1\n      dup4\n      0xffffffffffffffffffffffffffffffffffffffff\n      and\n      mul\n      or\n      swap1\n      sstore\n      pop\n        /* \"contracts/LotterySmartContract.sol\":1027:1033  winner */\n      0x02\n      0x00\n      swap1\n      sload\n      swap1\n      0x0100\n      exp\n      swap1\n      div\n      0xffffffffffffffffffffffffffffffffffffffff\n      and\n        /* \"contracts/LotterySmartContract.sol\":1027:1042  winner.transfer */\n      0xffffffffffffffffffffffffffffffffffffffff\n      and\n        /* \"contracts/LotterySmartContract.sol\":1027:1056  winner.transfer(getBalance()) */\n      0x08fc\n        /* \"contracts/LotterySmartContract.sol\":1043:1055  getBalance() */\n      tag_53\n        /* \"contracts/LotterySmartContract.sol\":1043:1053  getBalance */\n      tag_10\n        /* \"contracts/LotterySmartContract.sol\":1043:1055  getBalance() */\n      jump\t// in\n    tag_53:\n        /* \"contracts/LotterySmartContract.sol\":1027:1056  winner.transfer(getBalance()) */\n      swap1\n      dup2\n      iszero\n      mul\n      swap1\n      mload(0x40)\n      0x00\n      mload(0x40)\n      dup1\n      dup4\n      sub\n      dup2\n      dup6\n      dup9\n      dup9\n      call\n      swap4\n      pop\n      pop\n      pop\n      pop\n      iszero\n      dup1\n      iszero\n      tag_55\n      jumpi\n      returndatasize\n      0x00\n      dup1\n      returndatacopy\n      revert(0x00, returndatasize)\n    tag_55:\n      pop\n        /* \"contracts/LotterySmartContract.sol\":1098:1099  0 */\n      0x00\n        /* \"contracts/LotterySmartContract.sol\":1076:1100  new address payable[](0) */\n      0xffffffffffffffff\n      dup2\n      gt\n      iszero\n      tag_56\n      jumpi\n      tag_57\n      tag_58\n      jump\t// in\n    tag_57:\n    tag_56:\n      mload(0x40)\n      swap1\n      dup1\n      dup3\n      mstore\n      dup1\n      0x20\n      mul\n      0x20\n      add\n      dup3\n      add\n      0x40\n      mstore\n      dup1\n      iszero\n      tag_59\n      jumpi\n      dup2\n      0x20\n      add\n      0x20\n      dup3\n      mul\n      dup1\n      calldatasize\n      dup4\n      calldatacopy\n      dup1\n      dup3\n      add\n      swap2\n      pop\n      pop\n      swap1\n      pop\n    tag_59:\n      pop\n        /* \"contracts/LotterySmartContract.sol\":1067:1074  players */\n      0x01\n        /* \"contracts/LotterySmartContract.sol\":1067:1100  players =new address payable[](0) */\n      swap1\n      dup1\n      mload\n      swap1\n      0x20\n      add\n      swap1\n      tag_60\n      swap3\n      swap2\n      swap1\n      tag_61\n      jump\t// in\n    tag_60:\n      pop\n        /* \"contracts/LotterySmartContract.sol\":788:1108  {... */\n      pop\n      pop\n        /* \"contracts/LotterySmartContract.sol\":759:1108  function pickWinner() public {... */\n      jump\t// out\n        /* \"contracts/LotterySmartContract.sol\":271:425  function participate() public payable {... */\n    tag_22:\n        /* \"contracts/LotterySmartContract.sol\":339:346  1 ether */\n      0x0de0b6b3a7640000\n        /* \"contracts/LotterySmartContract.sol\":328:337  msg.value */\n      callvalue\n        /* \"contracts/LotterySmartContract.sol\":328:346  msg.value==1 ether */\n      eq\n        /* \"contracts/LotterySmartContract.sol\":320:373  require(msg.value==1 ether,\"Please pay 1 ether only\") */\n      tag_63\n      jumpi\n      mload(0x40)\n      0x08c379a000000000000000000000000000000000000000000000000000000000\n      dup2\n      mstore\n      0x04\n      add\n      tag_64\n      swap1\n      tag_65\n      jump\t// in\n    tag_64:\n      mload(0x40)\n      dup1\n      swap2\n      sub\n      swap1\n      revert\n    tag_63:\n        /* \"contracts/LotterySmartContract.sol\":384:391  players */\n      0x01\n        /* \"contracts/LotterySmartContract.sol\":405:415  msg.sender */\n      caller\n        /* \"contracts/LotterySmartContract.sol\":384:417  players.push(payable(msg.sender)) */\n      swap1\n      dup1\n      0x01\n      dup2\n      sload\n      add\n      dup1\n      dup3\n      sstore\n      dup1\n      swap2\n      pop\n      pop\n      0x01\n      swap1\n      sub\n      swap1\n      0x00\n      mstore\n      keccak256(0x00, 0x20)\n      add\n      0x00\n      swap1\n      swap2\n      swap1\n      swap2\n      swap1\n      swap2\n      0x0100\n      exp\n      dup2\n      sload\n      dup2\n      0xffffffffffffffffffffffffffffffffffffffff\n      mul\n      not\n      and\n      swap1\n      dup4\n      0xffffffffffffffffffffffffffffffffffffffff\n      and\n      mul\n      or\n      swap1\n      sstore\n      pop\n        /* \"contracts/LotterySmartContract.sol\":271:425  function participate() public payable {... */\n      jump\t// out\n        /* \"contracts/LotterySmartContract.sol\":173:202  address payable public winner */\n    tag_25:\n      0x02\n      0x00\n      swap1\n      sload\n      swap1\n      0x0100\n      exp\n      swap1\n      div\n      0xffffffffffffffffffffffffffffffffffffffff\n      and\n      dup2\n      jump\t// out\n        /* \"contracts/LotterySmartContract.sol\":134:166  address payable[] public players */\n    tag_32:\n      0x01\n      dup2\n      dup2\n      sload\n      dup2\n      lt\n      tag_67\n      jumpi\n      0x00\n      dup1\n      revert\n    tag_67:\n      swap1\n      0x00\n      mstore\n      keccak256(0x00, 0x20)\n      add\n      0x00\n      swap2\n      pop\n      sload\n      swap1\n      0x0100\n      exp\n      swap1\n      div\n      0xffffffffffffffffffffffffffffffffffffffff\n      and\n      dup2\n      jump\t// out\n        /* \"contracts/LotterySmartContract.sol\":599:753  function random() internal view returns(uint) {... */\n    tag_46:\n        /* \"contracts/LotterySmartContract.sol\":639:643  uint */\n      0x00\n        /* \"contracts/LotterySmartContract.sol\":695:711  block.difficulty */\n      prevrandao\n        /* \"contracts/LotterySmartContract.sol\":712:727  block.timestamp */\n      timestamp\n        /* \"contracts/LotterySmartContract.sol\":728:735  players */\n      0x01\n        /* \"contracts/LotterySmartContract.sol\":728:742  players.length */\n      dup1\n      sload\n      swap1\n      pop\n        /* \"contracts/LotterySmartContract.sol\":678:743  abi.encodePacked(block.difficulty,block.timestamp,players.length) */\n      add(0x20, mload(0x40))\n      tag_70\n      swap4\n      swap3\n      swap2\n      swap1\n      tag_71\n      jump\t// in\n    tag_70:\n      mload(0x40)\n      0x20\n      dup2\n      dup4\n      sub\n      sub\n      dup2\n      mstore\n      swap1\n      0x40\n      mstore\n        /* \"contracts/LotterySmartContract.sol\":668:744  keccak256(abi.encodePacked(block.difficulty,block.timestamp,players.length)) */\n      dup1\n      mload\n      swap1\n      0x20\n      add\n      keccak256\n        /* \"contracts/LotterySmartContract.sol\":662:745  uint( keccak256(abi.encodePacked(block.difficulty,block.timestamp,players.length))) */\n      0x00\n      shr\n        /* \"contracts/LotterySmartContract.sol\":655:745  return uint( keccak256(abi.encodePacked(block.difficulty,block.timestamp,players.length))) */\n      swap1\n      pop\n        /* \"contracts/LotterySmartContract.sol\":599:753  function random() internal view returns(uint) {... */\n      swap1\n      jump\t// out\n    tag_61:\n      dup3\n      dup1\n      sload\n      dup3\n      dup3\n      sstore\n      swap1\n      0x00\n      mstore\n      keccak256(0x00, 0x20)\n      swap1\n      dup2\n      add\n      swap3\n      dup3\n      iszero\n      tag_72\n      jumpi\n      swap2\n      0x20\n      mul\n      dup3\n      add\n    tag_73:\n      dup3\n      dup2\n      gt\n      iszero\n      tag_74\n      jumpi\n      dup3\n      mload\n      dup3\n      exp(0x0100, 0x00)\n      dup2\n      sload\n      dup2\n      0xffffffffffffffffffffffffffffffffffffffff\n      mul\n      not\n      and\n      swap1\n      dup4\n      0xffffffffffffffffffffffffffffffffffffffff\n      and\n      mul\n      or\n      swap1\n      sstore\n      pop\n      swap2\n      0x20\n      add\n      swap2\n      swap1\n      0x01\n      add\n      swap1\n      jump(tag_73)\n    tag_74:\n    tag_72:\n      pop\n      swap1\n      pop\n      tag_75\n      swap2\n      swap1\n      tag_76\n      jump\t// in\n    tag_75:\n      pop\n      swap1\n      jump\t// out\n    tag_76:\n    tag_77:\n      dup1\n      dup3\n      gt\n      iszero\n      tag_78\n      jumpi\n      0x00\n      dup2\n      0x00\n      swap1\n      sstore\n      pop\n      0x01\n      add\n      jump(tag_77)\n    tag_78:\n      pop\n      swap1\n      jump\t// out\n        /* \"#utility.yul\":7:84   */\n    tag_79:\n        /* \"#utility.yul\":44:51   */\n      0x00\n        /* \"#utility.yul\":73:78   */\n      dup2\n        /* \"#utility.yul\":62:78   */\n      swap1\n      pop\n        /* \"#utility.yul\":7:84   */\n      swap2\n      swap1\n      pop\n      jump\t// out\n        /* \"#utility.yul\":90:208   */\n    tag_80:\n        /* \"#utility.yul\":177:201   */\n      tag_106\n        /* \"#utility.yul\":195:200   */\n      dup2\n        /* \"#utility.yul\":177:201   */\n      tag_79\n      jump\t// in\n    tag_106:\n        /* \"#utility.yul\":172:175   */\n      dup3\n        /* \"#utility.yul\":165:202   */\n      mstore\n        /* \"#utility.yul\":90:208   */\n      pop\n      pop\n      jump\t// out\n        /* \"#utility.yul\":214:436   */\n    tag_12:\n        /* \"#utility.yul\":307:311   */\n      0x00\n        /* \"#utility.yul\":345:347   */\n      0x20\n        /* \"#utility.yul\":334:343   */\n      dup3\n        /* \"#utility.yul\":330:348   */\n      add\n        /* \"#utility.yul\":322:348   */\n      swap1\n      pop\n        /* \"#utility.yul\":358:429   */\n      tag_108\n        /* \"#utility.yul\":426:427   */\n      0x00\n        /* \"#utility.yul\":415:424   */\n      dup4\n        /* \"#utility.yul\":411:428   */\n      add\n        /* \"#utility.yul\":402:408   */\n      dup5\n        /* \"#utility.yul\":358:429   */\n      tag_80\n      jump\t// in\n    tag_108:\n        /* \"#utility.yul\":214:436   */\n      swap3\n      swap2\n      pop\n      pop\n      jump\t// out\n        /* \"#utility.yul\":442:568   */\n    tag_81:\n        /* \"#utility.yul\":479:486   */\n      0x00\n        /* \"#utility.yul\":519:561   */\n      0xffffffffffffffffffffffffffffffffffffffff\n        /* \"#utility.yul\":512:517   */\n      dup3\n        /* \"#utility.yul\":508:562   */\n      and\n        /* \"#utility.yul\":497:562   */\n      swap1\n      pop\n        /* \"#utility.yul\":442:568   */\n      swap2\n      swap1\n      pop\n      jump\t// out\n        /* \"#utility.yul\":574:670   */\n    tag_82:\n        /* \"#utility.yul\":611:618   */\n      0x00\n        /* \"#utility.yul\":640:664   */\n      tag_111\n        /* \"#utility.yul\":658:663   */\n      dup3\n        /* \"#utility.yul\":640:664   */\n      tag_81\n      jump\t// in\n    tag_111:\n        /* \"#utility.yul\":629:664   */\n      swap1\n      pop\n        /* \"#utility.yul\":574:670   */\n      swap2\n      swap1\n      pop\n      jump\t// out\n        /* \"#utility.yul\":676:794   */\n    tag_83:\n        /* \"#utility.yul\":763:787   */\n      tag_113\n        /* \"#utility.yul\":781:786   */\n      dup2\n        /* \"#utility.yul\":763:787   */\n      tag_82\n      jump\t// in\n    tag_113:\n        /* \"#utility.yul\":758:761   */\n      dup3\n        /* \"#utility.yul\":751:788   */\n      mstore\n        /* \"#utility.yul\":676:794   */\n      pop\n      pop\n      jump\t// out\n        /* \"#utility.yul\":800:1022   */\n    tag_17:\n        /* \"#utility.yul\":893:897   */\n      0x00\n        /* \"#utility.yul\":931:933   */\n      0x20\n        /* \"#utility.yul\":920:929   */\n      dup3\n        /* \"#utility.yul\":916:934   */\n      add\n        /* \"#utility.yul\":908:934   */\n      swap1\n      pop\n        /* \"#utility.yul\":944:1015   */\n      tag_115\n        /* \"#utility.yul\":1012:1013   */\n      0x00\n        /* \"#utility.yul\":1001:1010   */\n      dup4\n        /* \"#utility.yul\":997:1014   */\n      add\n        /* \"#utility.yul\":988:994   */\n      dup5\n        /* \"#utility.yul\":944:1015   */\n      tag_83\n      jump\t// in\n    tag_115:\n        /* \"#utility.yul\":800:1022   */\n      swap3\n      swap2\n      pop\n      pop\n      jump\t// out\n        /* \"#utility.yul\":1028:1132   */\n    tag_84:\n        /* \"#utility.yul\":1073:1080   */\n      0x00\n        /* \"#utility.yul\":1102:1126   */\n      tag_117\n        /* \"#utility.yul\":1120:1125   */\n      dup3\n        /* \"#utility.yul\":1102:1126   */\n      tag_81\n      jump\t// in\n    tag_117:\n        /* \"#utility.yul\":1091:1126   */\n      swap1\n      pop\n        /* \"#utility.yul\":1028:1132   */\n      swap2\n      swap1\n      pop\n      jump\t// out\n        /* \"#utility.yul\":1138:1280   */\n    tag_85:\n        /* \"#utility.yul\":1241:1273   */\n      tag_119\n        /* \"#utility.yul\":1267:1272   */\n      dup2\n        /* \"#utility.yul\":1241:1273   */\n      tag_84\n      jump\t// in\n    tag_119:\n        /* \"#utility.yul\":1236:1239   */\n      dup3\n        /* \"#utility.yul\":1229:1274   */\n      mstore\n        /* \"#utility.yul\":1138:1280   */\n      pop\n      pop\n      jump\t// out\n        /* \"#utility.yul\":1286:1540   */\n    tag_27:\n        /* \"#utility.yul\":1395:1399   */\n      0x00\n        /* \"#utility.yul\":1433:1435   */\n      0x20\n        /* \"#utility.yul\":1422:1431   */\n      dup3\n        /* \"#utility.yul\":1418:1436   */\n      add\n        /* \"#utility.yul\":1410:1436   */\n      swap1\n      pop\n        /* \"#utility.yul\":1446:1533   */\n      tag_121\n        /* \"#utility.yul\":1530:1531   */\n      0x00\n        /* \"#utility.yul\":1519:1528   */\n      dup4\n        /* \"#utility.yul\":1515:1532   */\n      add\n        /* \"#utility.yul\":1506:1512   */\n      dup5\n        /* \"#utility.yul\":1446:1533   */\n      tag_85\n      jump\t// in\n    tag_121:\n        /* \"#utility.yul\":1286:1540   */\n      swap3\n      swap2\n      pop\n      pop\n      jump\t// out\n        /* \"#utility.yul\":1627:1744   */\n    tag_87:\n        /* \"#utility.yul\":1736:1737   */\n      0x00\n        /* \"#utility.yul\":1733:1734   */\n      dup1\n        /* \"#utility.yul\":1726:1738   */\n      revert\n        /* \"#utility.yul\":1873:1995   */\n    tag_89:\n        /* \"#utility.yul\":1946:1970   */\n      tag_126\n        /* \"#utility.yul\":1964:1969   */\n      dup2\n        /* \"#utility.yul\":1946:1970   */\n      tag_79\n      jump\t// in\n    tag_126:\n        /* \"#utility.yul\":1939:1944   */\n      dup2\n        /* \"#utility.yul\":1936:1971   */\n      eq\n        /* \"#utility.yul\":1926:1989   */\n      tag_127\n      jumpi\n        /* \"#utility.yul\":1985:1986   */\n      0x00\n        /* \"#utility.yul\":1982:1983   */\n      dup1\n        /* \"#utility.yul\":1975:1987   */\n      revert\n        /* \"#utility.yul\":1926:1989   */\n    tag_127:\n        /* \"#utility.yul\":1873:1995   */\n      pop\n      jump\t// out\n        /* \"#utility.yul\":2001:2140   */\n    tag_90:\n        /* \"#utility.yul\":2047:2052   */\n      0x00\n        /* \"#utility.yul\":2085:2091   */\n      dup2\n        /* \"#utility.yul\":2072:2092   */\n      calldataload\n        /* \"#utility.yul\":2063:2092   */\n      swap1\n      pop\n        /* \"#utility.yul\":2101:2134   */\n      tag_129\n        /* \"#utility.yul\":2128:2133   */\n      dup2\n        /* \"#utility.yul\":2101:2134   */\n      tag_89\n      jump\t// in\n    tag_129:\n        /* \"#utility.yul\":2001:2140   */\n      swap3\n      swap2\n      pop\n      pop\n      jump\t// out\n        /* \"#utility.yul\":2146:2475   */\n    tag_31:\n        /* \"#utility.yul\":2205:2211   */\n      0x00\n        /* \"#utility.yul\":2254:2256   */\n      0x20\n        /* \"#utility.yul\":2242:2251   */\n      dup3\n        /* \"#utility.yul\":2233:2240   */\n      dup5\n        /* \"#utility.yul\":2229:2252   */\n      sub\n        /* \"#utility.yul\":2225:2257   */\n      slt\n        /* \"#utility.yul\":2222:2341   */\n      iszero\n      tag_131\n      jumpi\n        /* \"#utility.yul\":2260:2339   */\n      tag_132\n      tag_87\n      jump\t// in\n    tag_132:\n        /* \"#utility.yul\":2222:2341   */\n    tag_131:\n        /* \"#utility.yul\":2380:2381   */\n      0x00\n        /* \"#utility.yul\":2405:2458   */\n      tag_133\n        /* \"#utility.yul\":2450:2457   */\n      dup5\n        /* \"#utility.yul\":2441:2447   */\n      dup3\n        /* \"#utility.yul\":2430:2439   */\n      dup6\n        /* \"#utility.yul\":2426:2448   */\n      add\n        /* \"#utility.yul\":2405:2458   */\n      tag_90\n      jump\t// in\n    tag_133:\n        /* \"#utility.yul\":2395:2458   */\n      swap2\n      pop\n        /* \"#utility.yul\":2351:2468   */\n      pop\n        /* \"#utility.yul\":2146:2475   */\n      swap3\n      swap2\n      pop\n      pop\n      jump\t// out\n        /* \"#utility.yul\":2481:2650   */\n    tag_91:\n        /* \"#utility.yul\":2565:2576   */\n      0x00\n        /* \"#utility.yul\":2599:2605   */\n      dup3\n        /* \"#utility.yul\":2594:2597   */\n      dup3\n        /* \"#utility.yul\":2587:2606   */\n      mstore\n        /* \"#utility.yul\":2639:2643   */\n      0x20\n        /* \"#utility.yul\":2634:2637   */\n      dup3\n        /* \"#utility.yul\":2630:2644   */\n      add\n        /* \"#utility.yul\":2615:2644   */\n      swap1\n      pop\n        /* \"#utility.yul\":2481:2650   */\n      swap3\n      swap2\n      pop\n      pop\n      jump\t// out\n        /* \"#utility.yul\":2656:2827   */\n    tag_92:\n        /* \"#utility.yul\":2796:2819   */\n      0x796f7520617265206e6f742061206d616e616765720000000000000000000000\n        /* \"#utility.yul\":2792:2793   */\n      0x00\n        /* \"#utility.yul\":2784:2790   */\n      dup3\n        /* \"#utility.yul\":2780:2794   */\n      add\n        /* \"#utility.yul\":2773:2820   */\n      mstore\n        /* \"#utility.yul\":2656:2827   */\n      pop\n      jump\t// out\n        /* \"#utility.yul\":2833:3199   */\n    tag_93:\n        /* \"#utility.yul\":2975:2978   */\n      0x00\n        /* \"#utility.yul\":2996:3063   */\n      tag_137\n        /* \"#utility.yul\":3060:3062   */\n      0x15\n        /* \"#utility.yul\":3055:3058   */\n      dup4\n        /* \"#utility.yul\":2996:3063   */\n      tag_91\n      jump\t// in\n    tag_137:\n        /* \"#utility.yul\":2989:3063   */\n      swap2\n      pop\n        /* \"#utility.yul\":3072:3165   */\n      tag_138\n        /* \"#utility.yul\":3161:3164   */\n      dup3\n        /* \"#utility.yul\":3072:3165   */\n      tag_92\n      jump\t// in\n    tag_138:\n        /* \"#utility.yul\":3190:3192   */\n      0x20\n        /* \"#utility.yul\":3185:3188   */\n      dup3\n        /* \"#utility.yul\":3181:3193   */\n      add\n        /* \"#utility.yul\":3174:3193   */\n      swap1\n      pop\n        /* \"#utility.yul\":2833:3199   */\n      swap2\n      swap1\n      pop\n      jump\t// out\n        /* \"#utility.yul\":3205:3624   */\n    tag_37:\n        /* \"#utility.yul\":3371:3375   */\n      0x00\n        /* \"#utility.yul\":3409:3411   */\n      0x20\n        /* \"#utility.yul\":3398:3407   */\n      dup3\n        /* \"#utility.yul\":3394:3412   */\n      add\n        /* \"#utility.yul\":3386:3412   */\n      swap1\n      pop\n        /* \"#utility.yul\":3458:3467   */\n      dup2\n        /* \"#utility.yul\":3452:3456   */\n      dup2\n        /* \"#utility.yul\":3448:3468   */\n      sub\n        /* \"#utility.yul\":3444:3445   */\n      0x00\n        /* \"#utility.yul\":3433:3442   */\n      dup4\n        /* \"#utility.yul\":3429:3446   */\n      add\n        /* \"#utility.yul\":3422:3469   */\n      mstore\n        /* \"#utility.yul\":3486:3617   */\n      tag_140\n        /* \"#utility.yul\":3612:3616   */\n      dup2\n        /* \"#utility.yul\":3486:3617   */\n      tag_93\n      jump\t// in\n    tag_140:\n        /* \"#utility.yul\":3478:3617   */\n      swap1\n      pop\n        /* \"#utility.yul\":3205:3624   */\n      swap2\n      swap1\n      pop\n      jump\t// out\n        /* \"#utility.yul\":3630:3803   */\n    tag_94:\n        /* \"#utility.yul\":3770:3795   */\n      0x596f7520617265206e6f7420746865206d616e61676572000000000000000000\n        /* \"#utility.yul\":3766:3767   */\n      0x00\n        /* \"#utility.yul\":3758:3764   */\n      dup3\n        /* \"#utility.yul\":3754:3768   */\n      add\n        /* \"#utility.yul\":3747:3796   */\n      mstore\n        /* \"#utility.yul\":3630:3803   */\n      pop\n      jump\t// out\n        /* \"#utility.yul\":3809:4175   */\n    tag_95:\n        /* \"#utility.yul\":3951:3954   */\n      0x00\n        /* \"#utility.yul\":3972:4039   */\n      tag_143\n        /* \"#utility.yul\":4036:4038   */\n      0x17\n        /* \"#utility.yul\":4031:4034   */\n      dup4\n        /* \"#utility.yul\":3972:4039   */\n      tag_91\n      jump\t// in\n    tag_143:\n        /* \"#utility.yul\":3965:4039   */\n      swap2\n      pop\n        /* \"#utility.yul\":4048:4141   */\n      tag_144\n        /* \"#utility.yul\":4137:4140   */\n      dup3\n        /* \"#utility.yul\":4048:4141   */\n      tag_94\n      jump\t// in\n    tag_144:\n        /* \"#utility.yul\":4166:4168   */\n      0x20\n        /* \"#utility.yul\":4161:4164   */\n      dup3\n        /* \"#utility.yul\":4157:4169   */\n      add\n        /* \"#utility.yul\":4150:4169   */\n      swap1\n      pop\n        /* \"#utility.yul\":3809:4175   */\n      swap2\n      swap1\n      pop\n      jump\t// out\n        /* \"#utility.yul\":4181:4600   */\n    tag_41:\n        /* \"#utility.yul\":4347:4351   */\n      0x00\n        /* \"#utility.yul\":4385:4387   */\n      0x20\n        /* \"#utility.yul\":4374:4383   */\n      dup3\n        /* \"#utility.yul\":4370:4388   */\n      add\n        /* \"#utility.yul\":4362:4388   */\n      swap1\n      pop\n        /* \"#utility.yul\":4434:4443   */\n      dup2\n        /* \"#utility.yul\":4428:4432   */\n      dup2\n        /* \"#utility.yul\":4424:4444   */\n      sub\n        /* \"#utility.yul\":4420:4421   */\n      0x00\n        /* \"#utility.yul\":4409:4418   */\n      dup4\n        /* \"#utility.yul\":4405:4422   */\n      add\n        /* \"#utility.yul\":4398:4445   */\n      mstore\n        /* \"#utility.yul\":4462:4593   */\n      tag_146\n        /* \"#utility.yul\":4588:4592   */\n      dup2\n        /* \"#utility.yul\":4462:4593   */\n      tag_95\n      jump\t// in\n    tag_146:\n        /* \"#utility.yul\":4454:4593   */\n      swap1\n      pop\n        /* \"#utility.yul\":4181:4600   */\n      swap2\n      swap1\n      pop\n      jump\t// out\n        /* \"#utility.yul\":4606:4779   */\n    tag_96:\n        /* \"#utility.yul\":4746:4771   */\n      0x706c617965727320617265206c657373207468616e2033000000000000000000\n        /* \"#utility.yul\":4742:4743   */\n      0x00\n        /* \"#utility.yul\":4734:4740   */\n      dup3\n        /* \"#utility.yul\":4730:4744   */\n      add\n        /* \"#utility.yul\":4723:4772   */\n      mstore\n        /* \"#utility.yul\":4606:4779   */\n      pop\n      jump\t// out\n        /* \"#utility.yul\":4785:5151   */\n    tag_97:\n        /* \"#utility.yul\":4927:4930   */\n      0x00\n        /* \"#utility.yul\":4948:5015   */\n      tag_149\n        /* \"#utility.yul\":5012:5014   */\n      0x17\n        /* \"#utility.yul\":5007:5010   */\n      dup4\n        /* \"#utility.yul\":4948:5015   */\n      tag_91\n      jump\t// in\n    tag_149:\n        /* \"#utility.yul\":4941:5015   */\n      swap2\n      pop\n        /* \"#utility.yul\":5024:5117   */\n      tag_150\n        /* \"#utility.yul\":5113:5116   */\n      dup3\n        /* \"#utility.yul\":5024:5117   */\n      tag_96\n      jump\t// in\n    tag_150:\n        /* \"#utility.yul\":5142:5144   */\n      0x20\n        /* \"#utility.yul\":5137:5140   */\n      dup3\n        /* \"#utility.yul\":5133:5145   */\n      add\n        /* \"#utility.yul\":5126:5145   */\n      swap1\n      pop\n        /* \"#utility.yul\":4785:5151   */\n      swap2\n      swap1\n      pop\n      jump\t// out\n        /* \"#utility.yul\":5157:5576   */\n    tag_44:\n        /* \"#utility.yul\":5323:5327   */\n      0x00\n        /* \"#utility.yul\":5361:5363   */\n      0x20\n        /* \"#utility.yul\":5350:5359   */\n      dup3\n        /* \"#utility.yul\":5346:5364   */\n      add\n        /* \"#utility.yul\":5338:5364   */\n      swap1\n      pop\n        /* \"#utility.yul\":5410:5419   */\n      dup2\n        /* \"#utility.yul\":5404:5408   */\n      dup2\n        /* \"#utility.yul\":5400:5420   */\n      sub\n        /* \"#utility.yul\":5396:5397   */\n      0x00\n        /* \"#utility.yul\":5385:5394   */\n      dup4\n        /* \"#utility.yul\":5381:5398   */\n      add\n        /* \"#utility.yul\":5374:5421   */\n      mstore\n        /* \"#utility.yul\":5438:5569   */\n      tag_152\n        /* \"#utility.yul\":5564:5568   */\n      dup2\n        /* \"#utility.yul\":5438:5569   */\n      tag_97\n      jump\t// in\n    tag_152:\n        /* \"#utility.yul\":5430:5569   */\n      swap1\n      pop\n        /* \"#utility.yul\":5157:5576   */\n      swap2\n      swap1\n      pop\n      jump\t// out\n        /* \"#utility.yul\":5582:5762   */\n    tag_98:\n        /* \"#utility.yul\":5630:5707   */\n      0x4e487b7100000000000000000000000000000000000000000000000000000000\n        /* \"#utility.yul\":5627:5628   */\n      0x00\n        /* \"#utility.yul\":5620:5708   */\n      mstore\n        /* \"#utility.yul\":5727:5731   */\n      0x12\n        /* \"#utility.yul\":5724:5725   */\n      0x04\n        /* \"#utility.yul\":5717:5732   */\n      mstore\n        /* \"#utility.yul\":5751:5755   */\n      0x24\n        /* \"#utility.yul\":5748:5749   */\n      0x00\n        /* \"#utility.yul\":5741:5756   */\n      revert\n        /* \"#utility.yul\":5768:5944   */\n    tag_48:\n        /* \"#utility.yul\":5800:5801   */\n      0x00\n        /* \"#utility.yul\":5817:5837   */\n      tag_155\n        /* \"#utility.yul\":5835:5836   */\n      dup3\n        /* \"#utility.yul\":5817:5837   */\n      tag_79\n      jump\t// in\n    tag_155:\n        /* \"#utility.yul\":5812:5837   */\n      swap2\n      pop\n        /* \"#utility.yul\":5851:5871   */\n      tag_156\n        /* \"#utility.yul\":5869:5870   */\n      dup4\n        /* \"#utility.yul\":5851:5871   */\n      tag_79\n      jump\t// in\n    tag_156:\n        /* \"#utility.yul\":5846:5871   */\n      swap3\n      pop\n        /* \"#utility.yul\":5890:5891   */\n      dup3\n        /* \"#utility.yul\":5880:5915   */\n      tag_157\n      jumpi\n        /* \"#utility.yul\":5895:5913   */\n      tag_158\n      tag_98\n      jump\t// in\n    tag_158:\n        /* \"#utility.yul\":5880:5915   */\n    tag_157:\n        /* \"#utility.yul\":5936:5937   */\n      dup3\n        /* \"#utility.yul\":5933:5934   */\n      dup3\n        /* \"#utility.yul\":5929:5938   */\n      mod\n        /* \"#utility.yul\":5924:5938   */\n      swap1\n      pop\n        /* \"#utility.yul\":5768:5944   */\n      swap3\n      swap2\n      pop\n      pop\n      jump\t// out\n        /* \"#utility.yul\":5950:6130   */\n    tag_51:\n        /* \"#utility.yul\":5998:6075   */\n      0x4e487b7100000000000000000000000000000000000000000000000000000000\n        /* \"#utility.yul\":5995:5996   */\n      0x00\n        /* \"#utility.yul\":5988:6076   */\n      mstore\n        /* \"#utility.yul\":6095:6099   */\n      0x32\n        /* \"#utility.yul\":6092:6093   */\n      0x04\n        /* \"#utility.yul\":6085:6100   */\n      mstore\n        /* \"#utility.yul\":6119:6123   */\n      0x24\n        /* \"#utility.yul\":6116:6117   */\n      0x00\n        /* \"#utility.yul\":6109:6124   */\n      revert\n        /* \"#utility.yul\":6136:6316   */\n    tag_58:\n        /* \"#utility.yul\":6184:6261   */\n      0x4e487b7100000000000000000000000000000000000000000000000000000000\n        /* \"#utility.yul\":6181:6182   */\n      0x00\n        /* \"#utility.yul\":6174:6262   */\n      mstore\n        /* \"#utility.yul\":6281:6285   */\n      0x41\n        /* \"#utility.yul\":6278:6279   */\n      0x04\n        /* \"#utility.yul\":6271:6286   */\n      mstore\n        /* \"#utility.yul\":6305:6309   */\n      0x24\n        /* \"#utility.yul\":6302:6303   */\n      0x00\n        /* \"#utility.yul\":6295:6310   */\n      revert\n        /* \"#utility.yul\":6322:6495   */\n    tag_99:\n        /* \"#utility.yul\":6462:6487   */\n      0x506c65617365207061792031206574686572206f6e6c79000000000000000000\n        /* \"#utility.yul\":6458:6459   */\n      0x00\n        /* \"#utility.yul\":6450:6456   */\n      dup3\n        /* \"#utility.yul\":6446:6460   */\n      add\n        /* \"#utility.yul\":6439:6488   */\n      mstore\n        /* \"#utility.yul\":6322:6495   */\n      pop\n      jump\t// out\n        /* \"#utility.yul\":6501:6867   */\n    tag_100:\n        /* \"#utility.yul\":6643:6646   */\n      0x00\n        /* \"#utility.yul\":6664:6731   */\n      tag_163\n        /* \"#utility.yul\":6728:6730   */\n      0x17\n        /* \"#utility.yul\":6723:6726   */\n      dup4\n        /* \"#utility.yul\":6664:6731   */\n      tag_91\n      jump\t// in\n    tag_163:\n        /* \"#utility.yul\":6657:6731   */\n      swap2\n      pop\n        /* \"#utility.yul\":6740:6833   */\n      tag_164\n        /* \"#utility.yul\":6829:6832   */\n      dup3\n        /* \"#utility.yul\":6740:6833   */\n      tag_99\n      jump\t// in\n    tag_164:\n        /* \"#utility.yul\":6858:6860   */\n      0x20\n        /* \"#utility.yul\":6853:6856   */\n      dup3\n        /* \"#utility.yul\":6849:6861   */\n      add\n        /* \"#utility.yul\":6842:6861   */\n      swap1\n      pop\n        /* \"#utility.yul\":6501:6867   */\n      swap2\n      swap1\n      pop\n      jump\t// out\n        /* \"#utility.yul\":6873:7292   */\n    tag_65:\n        /* \"#utility.yul\":7039:7043   */\n      0x00\n        /* \"#utility.yul\":7077:7079   */\n      0x20\n        /* \"#utility.yul\":7066:7075   */\n      dup3\n        /* \"#utility.yul\":7062:7080   */\n      add\n        /* \"#utility.yul\":7054:7080   */\n      swap1\n      pop\n        /* \"#utility.yul\":7126:7135   */\n      dup2\n        /* \"#utility.yul\":7120:7124   */\n      dup2\n        /* \"#utility.yul\":7116:7136   */\n      sub\n        /* \"#utility.yul\":7112:7113   */\n      0x00\n        /* \"#utility.yul\":7101:7110   */\n      dup4\n        /* \"#utility.yul\":7097:7114   */\n      add\n        /* \"#utility.yul\":7090:7137   */\n      mstore\n        /* \"#utility.yul\":7154:7285   */\n      tag_166\n        /* \"#utility.yul\":7280:7284   */\n      dup2\n        /* \"#utility.yul\":7154:7285   */\n      tag_100\n      jump\t// in\n    tag_166:\n        /* \"#utility.yul\":7146:7285   */\n      swap1\n      pop\n        /* \"#utility.yul\":6873:7292   */\n      swap2\n      swap1\n      pop\n      jump\t// out\n        /* \"#utility.yul\":7298:7377   */\n    tag_101:\n        /* \"#utility.yul\":7337:7344   */\n      0x00\n        /* \"#utility.yul\":7366:7371   */\n      dup2\n        /* \"#utility.yul\":7355:7371   */\n      swap1\n      pop\n        /* \"#utility.yul\":7298:7377   */\n      swap2\n      swap1\n      pop\n      jump\t// out\n        /* \"#utility.yul\":7383:7540   */\n    tag_102:\n        /* \"#utility.yul\":7488:7533   */\n      tag_169\n        /* \"#utility.yul\":7508:7532   */\n      tag_170\n        /* \"#utility.yul\":7526:7531   */\n      dup3\n        /* \"#utility.yul\":7508:7532   */\n      tag_79\n      jump\t// in\n    tag_170:\n        /* \"#utility.yul\":7488:7533   */\n      tag_101\n      jump\t// in\n    tag_169:\n        /* \"#utility.yul\":7483:7486   */\n      dup3\n        /* \"#utility.yul\":7476:7534   */\n      mstore\n        /* \"#utility.yul\":7383:7540   */\n      pop\n      pop\n      jump\t// out\n        /* \"#utility.yul\":7546:8084   */\n    tag_71:\n        /* \"#utility.yul\":7714:7717   */\n      0x00\n        /* \"#utility.yul\":7729:7804   */\n      tag_172\n        /* \"#utility.yul\":7800:7803   */\n      dup3\n        /* \"#utility.yul\":7791:7797   */\n      dup7\n        /* \"#utility.yul\":7729:7804   */\n      tag_102\n      jump\t// in\n    tag_172:\n        /* \"#utility.yul\":7829:7831   */\n      0x20\n        /* \"#utility.yul\":7824:7827   */\n      dup3\n        /* \"#utility.yul\":7820:7832   */\n      add\n        /* \"#utility.yul\":7813:7832   */\n      swap2\n      pop\n        /* \"#utility.yul\":7842:7917   */\n      tag_173\n        /* \"#utility.yul\":7913:7916   */\n      dup3\n        /* \"#utility.yul\":7904:7910   */\n      dup6\n        /* \"#utility.yul\":7842:7917   */\n      tag_102\n      jump\t// in\n    tag_173:\n        /* \"#utility.yul\":7942:7944   */\n      0x20\n        /* \"#utility.yul\":7937:7940   */\n      dup3\n        /* \"#utility.yul\":7933:7945   */\n      add\n        /* \"#utility.yul\":7926:7945   */\n      swap2\n      pop\n        /* \"#utility.yul\":7955:8030   */\n      tag_174\n        /* \"#utility.yul\":8026:8029   */\n      dup3\n        /* \"#utility.yul\":8017:8023   */\n      dup5\n        /* \"#utility.yul\":7955:8030   */\n      tag_102\n      jump\t// in\n    tag_174:\n        /* \"#utility.yul\":8055:8057   */\n      0x20\n        /* \"#utility.yul\":8050:8053   */\n      dup3\n        /* \"#utility.yul\":8046:8058   */\n      add\n        /* \"#utility.yul\":8039:8058   */\n      swap2\n      pop\n        /* \"#utility.yul\":8075:8078   */\n      dup2\n        /* \"#utility.yul\":8068:8078   */\n      swap1\n      pop\n        /* \"#utility.yul\":7546:8084   */\n      swap5\n      swap4\n      pop\n      pop\n      pop\n      pop\n      jump\t// out\n\n    auxdata: 0xa26469706673582212208c3137a3e1c8ee951a38e186e3c4ecfc737347f485d36bc17472572be61ae34c64736f6c63430008180033\n}\n",
				"bytecode": {
					"linkReferences": {},
					"object": "608060405234801561000f575f80fd5b50335f806101000a81548173ffffffffffffffffffffffffffffffffffffffff021916908373ffffffffffffffffffffffffffffffffffffffff160217905550610a228061005c5f395ff3fe608060405260043610610054575f3560e01c806312065fe014610058578063481c6a75146100825780635d495aea146100ac578063d11711a2146100c2578063dfbf53ae146100cc578063f71d96cb146100f6575b5f80fd5b348015610063575f80fd5b5061006c610132565b6040516100799190610626565b60405180910390f35b34801561008d575f80fd5b506100966101c6565b6040516100a3919061067e565b60405180910390f35b3480156100b7575f80fd5b506100c06101e9565b005b6100ca610428565b005b3480156100d7575f80fd5b506100e06104d4565b6040516100ed91906106b7565b60405180910390f35b348015610101575f80fd5b5061011c600480360381019061011791906106fe565b6104f9565b60405161012991906106b7565b60405180910390f35b5f3373ffffffffffffffffffffffffffffffffffffffff165f8054906101000a900473ffffffffffffffffffffffffffffffffffffffff1673ffffffffffffffffffffffffffffffffffffffff16146101c0576040517f08c379a00000000000000000000000000000000000000000000000000000000081526004016101b790610783565b60405180910390fd5b47905090565b5f8054906101000a900473ffffffffffffffffffffffffffffffffffffffff1681565b3373ffffffffffffffffffffffffffffffffffffffff165f8054906101000a900473ffffffffffffffffffffffffffffffffffffffff1673ffffffffffffffffffffffffffffffffffffffff1614610276576040517f08c379a000000000000000000000000000000000000000000000000000000000815260040161026d906107eb565b60405180910390fd5b600360018054905010156102bf576040517f08c379a00000000000000000000000000000000000000000000000000000000081526004016102b690610853565b60405180910390fd5b5f6102c8610534565b90505f600180549050826102dc919061089e565b9050600181815481106102f2576102f16108ce565b5b905f5260205f20015f9054906101000a900473ffffffffffffffffffffffffffffffffffffffff1660025f6101000a81548173ffffffffffffffffffffffffffffffffffffffff021916908373ffffffffffffffffffffffffffffffffffffffff16021790555060025f9054906101000a900473ffffffffffffffffffffffffffffffffffffffff1673ffffffffffffffffffffffffffffffffffffffff166108fc61039c610132565b90811502906040515f60405180830381858888f193505050501580156103c4573d5f803e3d5ffd5b505f67ffffffffffffffff8111156103df576103de6108fb565b5b60405190808252806020026020018201604052801561040d5781602001602082028036833780820191505090505b506001908051906020019061042392919061056c565b505050565b670de0b6b3a76400003414610472576040517f08c379a000000000000000000000000000000000000000000000000000000000815260040161046990610972565b60405180910390fd5b600133908060018154018082558091505060019003905f5260205f20015f9091909190916101000a81548173ffffffffffffffffffffffffffffffffffffffff021916908373ffffffffffffffffffffffffffffffffffffffff160217905550565b60025f9054906101000a900473ffffffffffffffffffffffffffffffffffffffff1681565b60018181548110610508575f80fd5b905f5260205f20015f915054906101000a900473ffffffffffffffffffffffffffffffffffffffff1681565b5f444260018054905060405160200161054f939291906109b0565b604051602081830303815290604052805190602001205f1c905090565b828054828255905f5260205f209081019282156105e2579160200282015b828111156105e1578251825f6101000a81548173ffffffffffffffffffffffffffffffffffffffff021916908373ffffffffffffffffffffffffffffffffffffffff1602179055509160200191906001019061058a565b5b5090506105ef91906105f3565b5090565b5b8082111561060a575f815f9055506001016105f4565b5090565b5f819050919050565b6106208161060e565b82525050565b5f6020820190506106395f830184610617565b92915050565b5f73ffffffffffffffffffffffffffffffffffffffff82169050919050565b5f6106688261063f565b9050919050565b6106788161065e565b82525050565b5f6020820190506106915f83018461066f565b92915050565b5f6106a18261063f565b9050919050565b6106b181610697565b82525050565b5f6020820190506106ca5f8301846106a8565b92915050565b5f80fd5b6106dd8161060e565b81146106e7575f80fd5b50565b5f813590506106f8816106d4565b92915050565b5f60208284031215610713576107126106d0565b5b5f610720848285016106ea565b91505092915050565b5f82825260208201905092915050565b7f796f7520617265206e6f742061206d616e6167657200000000000000000000005f82015250565b5f61076d601583610729565b915061077882610739565b602082019050919050565b5f6020820190508181035f83015261079a81610761565b9050919050565b7f596f7520617265206e6f7420746865206d616e616765720000000000000000005f82015250565b5f6107d5601783610729565b91506107e0826107a1565b602082019050919050565b5f6020820190508181035f830152610802816107c9565b9050919050565b7f706c617965727320617265206c657373207468616e20330000000000000000005f82015250565b5f61083d601783610729565b915061084882610809565b602082019050919050565b5f6020820190508181035f83015261086a81610831565b9050919050565b7f4e487b71000000000000000000000000000000000000000000000000000000005f52601260045260245ffd5b5f6108a88261060e565b91506108b38361060e565b9250826108c3576108c2610871565b5b828206905092915050565b7f4e487b71000000000000000000000000000000000000000000000000000000005f52603260045260245ffd5b7f4e487b71000000000000000000000000000000000000000000000000000000005f52604160045260245ffd5b7f506c65617365207061792031206574686572206f6e6c790000000000000000005f82015250565b5f61095c601783610729565b915061096782610928565b602082019050919050565b5f6020820190508181035f83015261098981610950565b9050919050565b5f819050919050565b6109aa6109a58261060e565b610990565b82525050565b5f6109bb8286610999565b6020820191506109cb8285610999565b6020820191506109db8284610999565b60208201915081905094935050505056fea26469706673582212208c3137a3e1c8ee951a38e186e3c4ecfc737347f485d36bc17472572be61ae34c64736f6c63430008180033",
					"opcodes": "PUSH1 0x80 PUSH1 0x40 MSTORE CALLVALUE DUP1 ISZERO PUSH2 0xF JUMPI PUSH0 DUP1 REVERT JUMPDEST POP CALLER PUSH0 DUP1 PUSH2 0x100 EXP DUP2 SLOAD DUP2 PUSH20 0xFFFFFFFFFFFFFFFFFFFFFFFFFFFFFFFFFFFFFFFF MUL NOT AND SWAP1 DUP4 PUSH20 0xFFFFFFFFFFFFFFFFFFFFFFFFFFFFFFFFFFFFFFFF AND MUL OR SWAP1 SSTORE POP PUSH2 0xA22 DUP1 PUSH2 0x5C PUSH0 CODECOPY PUSH0 RETURN INVALID PUSH1 0x80 PUSH1 0x40 MSTORE PUSH1 0x4 CALLDATASIZE LT PUSH2 0x54 JUMPI PUSH0 CALLDATALOAD PUSH1 0xE0 SHR DUP1 PUSH4 0x12065FE0 EQ PUSH2 0x58 JUMPI DUP1 PUSH4 0x481C6A75 EQ PUSH2 0x82 JUMPI DUP1 PUSH4 0x5D495AEA EQ PUSH2 0xAC JUMPI DUP1 PUSH4 0xD11711A2 EQ PUSH2 0xC2 JUMPI DUP1 PUSH4 0xDFBF53AE EQ PUSH2 0xCC JUMPI DUP1 PUSH4 0xF71D96CB EQ PUSH2 0xF6 JUMPI JUMPDEST PUSH0 DUP1 REVERT JUMPDEST CALLVALUE DUP1 ISZERO PUSH2 0x63 JUMPI PUSH0 DUP1 REVERT JUMPDEST POP PUSH2 0x6C PUSH2 0x132 JUMP JUMPDEST PUSH1 0x40 MLOAD PUSH2 0x79 SWAP2 SWAP1 PUSH2 0x626 JUMP JUMPDEST PUSH1 0x40 MLOAD DUP1 SWAP2 SUB SWAP1 RETURN JUMPDEST CALLVALUE DUP1 ISZERO PUSH2 0x8D JUMPI PUSH0 DUP1 REVERT JUMPDEST POP PUSH2 0x96 PUSH2 0x1C6 JUMP JUMPDEST PUSH1 0x40 MLOAD PUSH2 0xA3 SWAP2 SWAP1 PUSH2 0x67E JUMP JUMPDEST PUSH1 0x40 MLOAD DUP1 SWAP2 SUB SWAP1 RETURN JUMPDEST CALLVALUE DUP1 ISZERO PUSH2 0xB7 JUMPI PUSH0 DUP1 REVERT JUMPDEST POP PUSH2 0xC0 PUSH2 0x1E9 JUMP JUMPDEST STOP JUMPDEST PUSH2 0xCA PUSH2 0x428 JUMP JUMPDEST STOP JUMPDEST CALLVALUE DUP1 ISZERO PUSH2 0xD7 JUMPI PUSH0 DUP1 REVERT JUMPDEST POP PUSH2 0xE0 PUSH2 0x4D4 JUMP JUMPDEST PUSH1 0x40 MLOAD PUSH2 0xED SWAP2 SWAP1 PUSH2 0x6B7 JUMP JUMPDEST PUSH1 0x40 MLOAD DUP1 SWAP2 SUB SWAP1 RETURN JUMPDEST CALLVALUE DUP1 ISZERO PUSH2 0x101 JUMPI PUSH0 DUP1 REVERT JUMPDEST POP PUSH2 0x11C PUSH1 0x4 DUP1 CALLDATASIZE SUB DUP2 ADD SWAP1 PUSH2 0x117 SWAP2 SWAP1 PUSH2 0x6FE JUMP JUMPDEST PUSH2 0x4F9 JUMP JUMPDEST PUSH1 0x40 MLOAD PUSH2 0x129 SWAP2 SWAP1 PUSH2 0x6B7 JUMP JUMPDEST PUSH1 0x40 MLOAD DUP1 SWAP2 SUB SWAP1 RETURN JUMPDEST PUSH0 CALLER PUSH20 0xFFFFFFFFFFFFFFFFFFFFFFFFFFFFFFFFFFFFFFFF AND PUSH0 DUP1 SLOAD SWAP1 PUSH2 0x100 EXP SWAP1 DIV PUSH20 0xFFFFFFFFFFFFFFFFFFFFFFFFFFFFFFFFFFFFFFFF AND PUSH20 0xFFFFFFFFFFFFFFFFFFFFFFFFFFFFFFFFFFFFFFFF AND EQ PUSH2 0x1C0 JUMPI PUSH1 0x40 MLOAD PUSH32 0x8C379A000000000000000000000000000000000000000000000000000000000 DUP2 MSTORE PUSH1 0x4 ADD PUSH2 0x1B7 SWAP1 PUSH2 0x783 JUMP JUMPDEST PUSH1 0x40 MLOAD DUP1 SWAP2 SUB SWAP1 REVERT JUMPDEST SELFBALANCE SWAP1 POP SWAP1 JUMP JUMPDEST PUSH0 DUP1 SLOAD SWAP1 PUSH2 0x100 EXP SWAP1 DIV PUSH20 0xFFFFFFFFFFFFFFFFFFFFFFFFFFFFFFFFFFFFFFFF AND DUP2 JUMP JUMPDEST CALLER PUSH20 0xFFFFFFFFFFFFFFFFFFFFFFFFFFFFFFFFFFFFFFFF AND PUSH0 DUP1 SLOAD SWAP1 PUSH2 0x100 EXP SWAP1 DIV PUSH20 0xFFFFFFFFFFFFFFFFFFFFFFFFFFFFFFFFFFFFFFFF AND PUSH20 0xFFFFFFFFFFFFFFFFFFFFFFFFFFFFFFFFFFFFFFFF AND EQ PUSH2 0x276 JUMPI PUSH1 0x40 MLOAD PUSH32 0x8C379A000000000000000000000000000000000000000000000000000000000 DUP2 MSTORE PUSH1 0x4 ADD PUSH2 0x26D SWAP1 PUSH2 0x7EB JUMP JUMPDEST PUSH1 0x40 MLOAD DUP1 SWAP2 SUB SWAP1 REVERT JUMPDEST PUSH1 0x3 PUSH1 0x1 DUP1 SLOAD SWAP1 POP LT ISZERO PUSH2 0x2BF JUMPI PUSH1 0x40 MLOAD PUSH32 0x8C379A000000000000000000000000000000000000000000000000000000000 DUP2 MSTORE PUSH1 0x4 ADD PUSH2 0x2B6 SWAP1 PUSH2 0x853 JUMP JUMPDEST PUSH1 0x40 MLOAD DUP1 SWAP2 SUB SWAP1 REVERT JUMPDEST PUSH0 PUSH2 0x2C8 PUSH2 0x534 JUMP JUMPDEST SWAP1 POP PUSH0 PUSH1 0x1 DUP1 SLOAD SWAP1 POP DUP3 PUSH2 0x2DC SWAP2 SWAP1 PUSH2 0x89E JUMP JUMPDEST SWAP1 POP PUSH1 0x1 DUP2 DUP2 SLOAD DUP2 LT PUSH2 0x2F2 JUMPI PUSH2 0x2F1 PUSH2 0x8CE JUMP JUMPDEST JUMPDEST SWAP1 PUSH0 MSTORE PUSH1 0x20 PUSH0 KECCAK256 ADD PUSH0 SWAP1 SLOAD SWAP1 PUSH2 0x100 EXP SWAP1 DIV PUSH20 0xFFFFFFFFFFFFFFFFFFFFFFFFFFFFFFFFFFFFFFFF AND PUSH1 0x2 PUSH0 PUSH2 0x100 EXP DUP2 SLOAD DUP2 PUSH20 0xFFFFFFFFFFFFFFFFFFFFFFFFFFFFFFFFFFFFFFFF MUL NOT AND SWAP1 DUP4 PUSH20 0xFFFFFFFFFFFFFFFFFFFFFFFFFFFFFFFFFFFFFFFF AND MUL OR SWAP1 SSTORE POP PUSH1 0x2 PUSH0 SWAP1 SLOAD SWAP1 PUSH2 0x100 EXP SWAP1 DIV PUSH20 0xFFFFFFFFFFFFFFFFFFFFFFFFFFFFFFFFFFFFFFFF AND PUSH20 0xFFFFFFFFFFFFFFFFFFFFFFFFFFFFFFFFFFFFFFFF AND PUSH2 0x8FC PUSH2 0x39C PUSH2 0x132 JUMP JUMPDEST SWAP1 DUP2 ISZERO MUL SWAP1 PUSH1 0x40 MLOAD PUSH0 PUSH1 0x40 MLOAD DUP1 DUP4 SUB DUP2 DUP6 DUP9 DUP9 CALL SWAP4 POP POP POP POP ISZERO DUP1 ISZERO PUSH2 0x3C4 JUMPI RETURNDATASIZE PUSH0 DUP1 RETURNDATACOPY RETURNDATASIZE PUSH0 REVERT JUMPDEST POP PUSH0 PUSH8 0xFFFFFFFFFFFFFFFF DUP2 GT ISZERO PUSH2 0x3DF JUMPI PUSH2 0x3DE PUSH2 0x8FB JUMP JUMPDEST JUMPDEST PUSH1 0x40 MLOAD SWAP1 DUP1 DUP3 MSTORE DUP1 PUSH1 0x20 MUL PUSH1 0x20 ADD DUP3 ADD PUSH1 0x40 MSTORE DUP1 ISZERO PUSH2 0x40D JUMPI DUP2 PUSH1 0x20 ADD PUSH1 0x20 DUP3 MUL DUP1 CALLDATASIZE DUP4 CALLDATACOPY DUP1 DUP3 ADD SWAP2 POP POP SWAP1 POP JUMPDEST POP PUSH1 0x1 SWAP1 DUP1 MLOAD SWAP1 PUSH1 0x20 ADD SWAP1 PUSH2 0x423 SWAP3 SWAP2 SWAP1 PUSH2 0x56C JUMP JUMPDEST POP POP POP JUMP JUMPDEST PUSH8 0xDE0B6B3A7640000 CALLVALUE EQ PUSH2 0x472 JUMPI PUSH1 0x40 MLOAD PUSH32 0x8C379A000000000000000000000000000000000000000000000000000000000 DUP2 MSTORE PUSH1 0x4 ADD PUSH2 0x469 SWAP1 PUSH2 0x972 JUMP JUMPDEST PUSH1 0x40 MLOAD DUP1 SWAP2 SUB SWAP1 REVERT JUMPDEST PUSH1 0x1 CALLER SWAP1 DUP1 PUSH1 0x1 DUP2 SLOAD ADD DUP1 DUP3 SSTORE DUP1 SWAP2 POP POP PUSH1 0x1 SWAP1 SUB SWAP1 PUSH0 MSTORE PUSH1 0x20 PUSH0 KECCAK256 ADD PUSH0 SWAP1 SWAP2 SWAP1 SWAP2 SWAP1 SWAP2 PUSH2 0x100 EXP DUP2 SLOAD DUP2 PUSH20 0xFFFFFFFFFFFFFFFFFFFFFFFFFFFFFFFFFFFFFFFF MUL NOT AND SWAP1 DUP4 PUSH20 0xFFFFFFFFFFFFFFFFFFFFFFFFFFFFFFFFFFFFFFFF AND MUL OR SWAP1 SSTORE POP JUMP JUMPDEST PUSH1 0x2 PUSH0 SWAP1 SLOAD SWAP1 PUSH2 0x100 EXP SWAP1 DIV PUSH20 0xFFFFFFFFFFFFFFFFFFFFFFFFFFFFFFFFFFFFFFFF AND DUP2 JUMP JUMPDEST PUSH1 0x1 DUP2 DUP2 SLOAD DUP2 LT PUSH2 0x508 JUMPI PUSH0 DUP1 REVERT JUMPDEST SWAP1 PUSH0 MSTORE PUSH1 0x20 PUSH0 KECCAK256 ADD PUSH0 SWAP2 POP SLOAD SWAP1 PUSH2 0x100 EXP SWAP1 DIV PUSH20 0xFFFFFFFFFFFFFFFFFFFFFFFFFFFFFFFFFFFFFFFF AND DUP2 JUMP JUMPDEST PUSH0 PREVRANDAO TIMESTAMP PUSH1 0x1 DUP1 SLOAD SWAP1 POP PUSH1 0x40 MLOAD PUSH1 0x20 ADD PUSH2 0x54F SWAP4 SWAP3 SWAP2 SWAP1 PUSH2 0x9B0 JUMP JUMPDEST PUSH1 0x40 MLOAD PUSH1 0x20 DUP2 DUP4 SUB SUB DUP2 MSTORE SWAP1 PUSH1 0x40 MSTORE DUP1 MLOAD SWAP1 PUSH1 0x20 ADD KECCAK256 PUSH0 SHR SWAP1 POP SWAP1 JUMP JUMPDEST DUP3 DUP1 SLOAD DUP3 DUP3 SSTORE SWAP1 PUSH0 MSTORE PUSH1 0x20 PUSH0 KECCAK256 SWAP1 DUP2 ADD SWAP3 DUP3 ISZERO PUSH2 0x5E2 JUMPI SWAP2 PUSH1 0x20 MUL DUP3 ADD JUMPDEST DUP3 DUP2 GT ISZERO PUSH2 0x5E1 JUMPI DUP3 MLOAD DUP3 PUSH0 PUSH2 0x100 EXP DUP2 SLOAD DUP2 PUSH20 0xFFFFFFFFFFFFFFFFFFFFFFFFFFFFFFFFFFFFFFFF MUL NOT AND SWAP1 DUP4 PUSH20 0xFFFFFFFFFFFFFFFFFFFFFFFFFFFFFFFFFFFFFFFF AND MUL OR SWAP1 SSTORE POP SWAP2 PUSH1 0x20 ADD SWAP2 SWAP1 PUSH1 0x1 ADD SWAP1 PUSH2 0x58A JUMP JUMPDEST JUMPDEST POP SWAP1 POP PUSH2 0x5EF SWAP2 SWAP1 PUSH2 0x5F3 JUMP JUMPDEST POP SWAP1 JUMP JUMPDEST JUMPDEST DUP1 DUP3 GT ISZERO PUSH2 0x60A JUMPI PUSH0 DUP2 PUSH0 SWAP1 SSTORE POP PUSH1 0x1 ADD PUSH2 0x5F4 JUMP JUMPDEST POP SWAP1 JUMP JUMPDEST PUSH0 DUP2 SWAP1 POP SWAP2 SWAP1 POP JUMP JUMPDEST PUSH2 0x620 DUP2 PUSH2 0x60E JUMP JUMPDEST DUP3 MSTORE POP POP JUMP JUMPDEST PUSH0 PUSH1 0x20 DUP3 ADD SWAP1 POP PUSH2 0x639 PUSH0 DUP4 ADD DUP5 PUSH2 0x617 JUMP JUMPDEST SWAP3 SWAP2 POP POP JUMP JUMPDEST PUSH0 PUSH20 0xFFFFFFFFFFFFFFFFFFFFFFFFFFFFFFFFFFFFFFFF DUP3 AND SWAP1 POP SWAP2 SWAP1 POP JUMP JUMPDEST PUSH0 PUSH2 0x668 DUP3 PUSH2 0x63F JUMP JUMPDEST SWAP1 POP SWAP2 SWAP1 POP JUMP JUMPDEST PUSH2 0x678 DUP2 PUSH2 0x65E JUMP JUMPDEST DUP3 MSTORE POP POP JUMP JUMPDEST PUSH0 PUSH1 0x20 DUP3 ADD SWAP1 POP PUSH2 0x691 PUSH0 DUP4 ADD DUP5 PUSH2 0x66F JUMP JUMPDEST SWAP3 SWAP2 POP POP JUMP JUMPDEST PUSH0 PUSH2 0x6A1 DUP3 PUSH2 0x63F JUMP JUMPDEST SWAP1 POP SWAP2 SWAP1 POP JUMP JUMPDEST PUSH2 0x6B1 DUP2 PUSH2 0x697 JUMP JUMPDEST DUP3 MSTORE POP POP JUMP JUMPDEST PUSH0 PUSH1 0x20 DUP3 ADD SWAP1 POP PUSH2 0x6CA PUSH0 DUP4 ADD DUP5 PUSH2 0x6A8 JUMP JUMPDEST SWAP3 SWAP2 POP POP JUMP JUMPDEST PUSH0 DUP1 REVERT JUMPDEST PUSH2 0x6DD DUP2 PUSH2 0x60E JUMP JUMPDEST DUP2 EQ PUSH2 0x6E7 JUMPI PUSH0 DUP1 REVERT JUMPDEST POP JUMP JUMPDEST PUSH0 DUP2 CALLDATALOAD SWAP1 POP PUSH2 0x6F8 DUP2 PUSH2 0x6D4 JUMP JUMPDEST SWAP3 SWAP2 POP POP JUMP JUMPDEST PUSH0 PUSH1 0x20 DUP3 DUP5 SUB SLT ISZERO PUSH2 0x713 JUMPI PUSH2 0x712 PUSH2 0x6D0 JUMP JUMPDEST JUMPDEST PUSH0 PUSH2 0x720 DUP5 DUP3 DUP6 ADD PUSH2 0x6EA JUMP JUMPDEST SWAP2 POP POP SWAP3 SWAP2 POP POP JUMP JUMPDEST PUSH0 DUP3 DUP3 MSTORE PUSH1 0x20 DUP3 ADD SWAP1 POP SWAP3 SWAP2 POP POP JUMP JUMPDEST PUSH32 0x796F7520617265206E6F742061206D616E616765720000000000000000000000 PUSH0 DUP3 ADD MSTORE POP JUMP JUMPDEST PUSH0 PUSH2 0x76D PUSH1 0x15 DUP4 PUSH2 0x729 JUMP JUMPDEST SWAP2 POP PUSH2 0x778 DUP3 PUSH2 0x739 JUMP JUMPDEST PUSH1 0x20 DUP3 ADD SWAP1 POP SWAP2 SWAP1 POP JUMP JUMPDEST PUSH0 PUSH1 0x20 DUP3 ADD SWAP1 POP DUP2 DUP2 SUB PUSH0 DUP4 ADD MSTORE PUSH2 0x79A DUP2 PUSH2 0x761 JUMP JUMPDEST SWAP1 POP SWAP2 SWAP1 POP JUMP JUMPDEST PUSH32 0x596F7520617265206E6F7420746865206D616E61676572000000000000000000 PUSH0 DUP3 ADD MSTORE POP JUMP JUMPDEST PUSH0 PUSH2 0x7D5 PUSH1 0x17 DUP4 PUSH2 0x729 JUMP JUMPDEST SWAP2 POP PUSH2 0x7E0 DUP3 PUSH2 0x7A1 JUMP JUMPDEST PUSH1 0x20 DUP3 ADD SWAP1 POP SWAP2 SWAP1 POP JUMP JUMPDEST PUSH0 PUSH1 0x20 DUP3 ADD SWAP1 POP DUP2 DUP2 SUB PUSH0 DUP4 ADD MSTORE PUSH2 0x802 DUP2 PUSH2 0x7C9 JUMP JUMPDEST SWAP1 POP SWAP2 SWAP1 POP JUMP JUMPDEST PUSH32 0x706C617965727320617265206C657373207468616E2033000000000000000000 PUSH0 DUP3 ADD MSTORE POP JUMP JUMPDEST PUSH0 PUSH2 0x83D PUSH1 0x17 DUP4 PUSH2 0x729 JUMP JUMPDEST SWAP2 POP PUSH2 0x848 DUP3 PUSH2 0x809 JUMP JUMPDEST PUSH1 0x20 DUP3 ADD SWAP1 POP SWAP2 SWAP1 POP JUMP JUMPDEST PUSH0 PUSH1 0x20 DUP3 ADD SWAP1 POP DUP2 DUP2 SUB PUSH0 DUP4 ADD MSTORE PUSH2 0x86A DUP2 PUSH2 0x831 JUMP JUMPDEST SWAP1 POP SWAP2 SWAP1 POP JUMP JUMPDEST PUSH32 0x4E487B7100000000000000000000000000000000000000000000000000000000 PUSH0 MSTORE PUSH1 0x12 PUSH1 0x4 MSTORE PUSH1 0x24 PUSH0 REVERT JUMPDEST PUSH0 PUSH2 0x8A8 DUP3 PUSH2 0x60E JUMP JUMPDEST SWAP2 POP PUSH2 0x8B3 DUP4 PUSH2 0x60E JUMP JUMPDEST SWAP3 POP DUP3 PUSH2 0x8C3 JUMPI PUSH2 0x8C2 PUSH2 0x871 JUMP JUMPDEST JUMPDEST DUP3 DUP3 MOD SWAP1 POP SWAP3 SWAP2 POP POP JUMP JUMPDEST PUSH32 0x4E487B7100000000000000000000000000000000000000000000000000000000 PUSH0 MSTORE PUSH1 0x32 PUSH1 0x4 MSTORE PUSH1 0x24 PUSH0 REVERT JUMPDEST PUSH32 0x4E487B7100000000000000000000000000000000000000000000000000000000 PUSH0 MSTORE PUSH1 0x41 PUSH1 0x4 MSTORE PUSH1 0x24 PUSH0 REVERT JUMPDEST PUSH32 0x506C65617365207061792031206574686572206F6E6C79000000000000000000 PUSH0 DUP3 ADD MSTORE POP JUMP JUMPDEST PUSH0 PUSH2 0x95C PUSH1 0x17 DUP4 PUSH2 0x729 JUMP JUMPDEST SWAP2 POP PUSH2 0x967 DUP3 PUSH2 0x928 JUMP JUMPDEST PUSH1 0x20 DUP3 ADD SWAP1 POP SWAP2 SWAP1 POP JUMP JUMPDEST PUSH0 PUSH1 0x20 DUP3 ADD SWAP1 POP DUP2 DUP2 SUB PUSH0 DUP4 ADD MSTORE PUSH2 0x989 DUP2 PUSH2 0x950 JUMP JUMPDEST SWAP1 POP SWAP2 SWAP1 POP JUMP JUMPDEST PUSH0 DUP2 SWAP1 POP SWAP2 SWAP1 POP JUMP JUMPDEST PUSH2 0x9AA PUSH2 0x9A5 DUP3 PUSH2 0x60E JUMP JUMPDEST PUSH2 0x990 JUMP JUMPDEST DUP3 MSTORE POP POP JUMP JUMPDEST PUSH0 PUSH2 0x9BB DUP3 DUP7 PUSH2 0x999 JUMP JUMPDEST PUSH1 0x20 DUP3 ADD SWAP2 POP PUSH2 0x9CB DUP3 DUP6 PUSH2 0x999 JUMP JUMPDEST PUSH1 0x20 DUP3 ADD SWAP2 POP PUSH2 0x9DB DUP3 DUP5 PUSH2 0x999 JUMP JUMPDEST PUSH1 0x20 DUP3 ADD SWAP2 POP DUP2 SWAP1 POP SWAP5 SWAP4 POP POP POP POP JUMP INVALID LOG2 PUSH5 0x6970667358 0x22 SLT KECCAK256 DUP13 BALANCE CALLDATACOPY LOG3 0xE1 0xC8 0xEE SWAP6 BYTE CODESIZE 0xE1 DUP7 0xE3 0xC4 0xEC 0xFC PUSH20 0x7347F485D36BC17472572BE61AE34C64736F6C63 NUMBER STOP ADDMOD XOR STOP CALLER "
				},
				"gasEstimates": {
					"creation": {
						"codeDepositCost": "518800",
						"executionCost": "24819",
						"totalCost": "543619"
					},
					"external": {
						"getBalance()": "2573",
						"manager()": "2505",
						"participate()": "48760",
						"pickWinner()": "infinite",
						"players(uint256)": "5032",
						"winner()": "2574"
					},
					"internal": {
						"random()": "infinite"
					}
				},
				"methodIdentifiers": {
					"getBalance()": "12065fe0",
					"manager()": "481c6a75",
					"participate()": "d11711a2",
					"pickWinner()": "5d495aea",
					"players(uint256)": "f71d96cb",
					"winner()": "dfbf53ae"
				}
			},
			"storageLayout": {
				"storage": [
					{
						"astId": 3,
						"contract": "contracts/LotterySmartContract.sol:LotterySmartContract",
						"label": "manager",
						"offset": 0,
						"slot": "0",
						"type": "t_address"
					},
					{
						"astId": 6,
						"contract": "contracts/LotterySmartContract.sol:LotterySmartContract",
						"label": "players",
						"offset": 0,
						"slot": "1",
						"type": "t_array(t_address_payable)dyn_storage"
					},
					{
						"astId": 8,
						"contract": "contracts/LotterySmartContract.sol:LotterySmartContract",
						"label": "winner",
						"offset": 0,
						"slot": "2",
						"type": "t_address_payable"
					}
				],
				"types": {
					"t_address": {
						"encoding": "inplace",
						"label": "address",
						"numberOfBytes": "20"
					},
					"t_address_payable": {
						"encoding": "inplace",
						"label": "address payable",
						"numberOfBytes": "20"
					},
					"t_array(t_address_payable)dyn_storage": {
						"base": "t_address_payable",
						"encoding": "dynamic_array",
						"label": "address payable[]",
						"numberOfBytes": "32"
					}
				}
			},
			"userdoc": {
				"kind": "user",
				"methods": {},
				"version": 1
			}
		}
	}
}